S00F00005350495F50574D2E73726563D6
S113000019C033C032C031C030C02FC02EC02DC083
S11300102CC02BC02AC029C028C027C026C025C098
S113002024C031C022C021C020C01FC01EC01DC0BA
S11300301CC01BC011241FBECFEFD2E0DEBFCDBF5A
S113004011E0A0E0B1E0EEE9F0E002C005900D920D
S1130050A030B107D9F711E0A0E0B1E001C01D92D2
S1130060A030B107E1F702D018C0CACF84B18261D1
S113007084B984B1837D84B98AB188668AB98CB520
S1130080806C8CBDFFCF1F920F920FB60F9211247C
S11100900F900FBE0F901F901895F894FFCF9D
S9030000FC
