S00F00005350495F50574D2E73726563D6
S113000019C033C032C031C030C02FC02EC02DC083
S11300102CC02BC02AC029C028C027C026C025C098
S11300205AC030C022C021C020C01FC01EC01DC085
S11300301CC01BC011241FBECFEFD2E0DEBFCDBF5A
S113004011E0A0E0B1E0E0E8F1E002C005900D921B
S1130050A430B107D9F711E0A4E0B1E001C01D92CA
S1130060AD30B107E1F702D089C0CACF249A84B178
S1130070837D84B98AB180668AB98CB5806C8CBD65
S11300807894FFCF1F920F920FB60F9211248F9383
S113009080910001813051F0813018F0823081F478
S11300A00AC08EB581E0809300010FC08EB582E056
S11300B0809300010AC08EB583E08093000105C0DF
S11300C08EB58A3A11F4109200018F910F900FBEF1
S11300D00F901F9018951F920F920FB60F92112434
S11300E02F933F938F939F93809104018BB98091B9
S11300F00101909102010197909302018093010103
S11301000097B9F48091050190910601809107014F
S11301109091080190930A01809309018091040150
S11301208F798093040181E792E090930201809398
S11301300101809101019091020120910901309106
S11301400A012817390729F4209104012062209319
S1130150040120910B0130910C018217930729F4BB
S1130160809104018064809304019F918F913F9159
S11301702F910F900FBE0F901F901895F894FFCFFA
S10701800271020002
S9030000FC
